{"abi":[{"type":"constructor","inputs":[],"stateMutability":"nonpayable"},{"type":"function","name":"MAX_ADDRESSES_PER_POST","inputs":[],"outputs":[{"name":"","type":"uint256","internalType":"uint256"}],"stateMutability":"view"},{"type":"function","name":"MAX_TITLE_LENGTH","inputs":[],"outputs":[{"name":"","type":"uint256","internalType":"uint256"}],"stateMutability":"view"},{"type":"function","name":"MAX_VIEW_LIMIT","inputs":[],"outputs":[{"name":"","type":"uint256","internalType":"uint256"}],"stateMutability":"view"},{"type":"function","name":"UPGRADE_INTERFACE_VERSION","inputs":[],"outputs":[{"name":"","type":"string","internalType":"string"}],"stateMutability":"view"},{"type":"function","name":"acceptOwnership","inputs":[],"outputs":[],"stateMutability":"nonpayable"},{"type":"function","name":"activePostsBefore","inputs":[{"name":"beforeId","type":"uint256","internalType":"uint256"},{"name":"limit","type":"uint256","internalType":"uint256"}],"outputs":[{"name":"ids","type":"uint256[]","internalType":"uint256[]"}],"stateMutability":"view"},{"type":"function","name":"addAttackers","inputs":[{"name":"postId","type":"uint256","internalType":"uint256"},{"name":"newAttackers","type":"address[]","internalType":"address[]"}],"outputs":[],"stateMutability":"nonpayable"},{"type":"function","name":"addVictims","inputs":[{"name":"postId","type":"uint256","internalType":"uint256"},{"name":"newVictims","type":"address[]","internalType":"address[]"}],"outputs":[],"stateMutability":"nonpayable"},{"type":"function","name":"addWhitelisted","inputs":[{"name":"account","type":"address","internalType":"address"}],"outputs":[],"stateMutability":"nonpayable"},{"type":"function","name":"amendNote","inputs":[{"name":"postId","type":"uint256","internalType":"uint256"},{"name":"newNote","type":"string","internalType":"string"}],"outputs":[],"stateMutability":"nonpayable"},{"type":"function","name":"amendTitle","inputs":[{"name":"postId","type":"uint256","internalType":"uint256"},{"name":"newTitle","type":"string","internalType":"string"}],"outputs":[],"stateMutability":"nonpayable"},{"type":"function","name":"attackerAppearances","inputs":[{"name":"","type":"address","internalType":"address"}],"outputs":[{"name":"","type":"uint256","internalType":"uint256"}],"stateMutability":"view"},{"type":"function","name":"attackerReport","inputs":[{"name":"a","type":"address","internalType":"address"}],"outputs":[{"name":"score","type":"int256","internalType":"int256"},{"name":"appearances","type":"uint256","internalType":"uint256"}],"stateMutability":"view"},{"type":"function","name":"attackerScore","inputs":[{"name":"","type":"address","internalType":"address"}],"outputs":[{"name":"","type":"int256","internalType":"int256"}],"stateMutability":"view"},{"type":"function","name":"confirm","inputs":[{"name":"postId","type":"uint256","internalType":"uint256"},{"name":"direction","type":"uint8","internalType":"enum ThatsRekt.ConfirmDirection"}],"outputs":[],"stateMutability":"nonpayable"},{"type":"function","name":"confirmationOf","inputs":[{"name":"","type":"uint256","internalType":"uint256"},{"name":"","type":"address","internalType":"address"}],"outputs":[{"name":"","type":"uint8","internalType":"enum ThatsRekt.ConfirmDirection"}],"stateMutability":"view"},{"type":"function","name":"getConfirmerCount","inputs":[{"name":"postId","type":"uint256","internalType":"uint256"}],"outputs":[{"name":"","type":"uint256","internalType":"uint256"}],"stateMutability":"view"},{"type":"function","name":"getConfirmers","inputs":[{"name":"postId","type":"uint256","internalType":"uint256"}],"outputs":[{"name":"","type":"address[]","internalType":"address[]"}],"stateMutability":"view"},{"type":"function","name":"getDisconfirmerCount","inputs":[{"name":"postId","type":"uint256","internalType":"uint256"}],"outputs":[{"name":"","type":"uint256","internalType":"uint256"}],"stateMutability":"view"},{"type":"function","name":"getDisconfirmers","inputs":[{"name":"postId","type":"uint256","internalType":"uint256"}],"outputs":[{"name":"","type":"address[]","internalType":"address[]"}],"stateMutability":"view"},{"type":"function","name":"getPost","inputs":[{"name":"id","type":"uint256","internalType":"uint256"}],"outputs":[{"name":"poster","type":"address","internalType":"address"},{"name":"attackedAt","type":"uint64","internalType":"uint64"},{"name":"confirmations","type":"uint32","internalType":"uint32"},{"name":"disconfirmations","type":"uint32","internalType":"uint32"},{"name":"removed","type":"bool","internalType":"bool"},{"name":"attackers_","type":"address[]","internalType":"address[]"},{"name":"victims_","type":"address[]","internalType":"address[]"},{"name":"lastUpdatedAt","type":"uint64","internalType":"uint64"}],"stateMutability":"view"},{"type":"function","name":"headPostId","inputs":[],"outputs":[{"name":"","type":"uint256","internalType":"uint256"}],"stateMutability":"view"},{"type":"function","name":"initialize","inputs":[{"name":"initialOwner","type":"address","internalType":"address"}],"outputs":[],"stateMutability":"nonpayable"},{"type":"function","name":"isVictim","inputs":[{"name":"","type":"address","internalType":"address"}],"outputs":[{"name":"","type":"bool","internalType":"bool"}],"stateMutability":"view"},{"type":"function","name":"isWhitelisted","inputs":[{"name":"","type":"address","internalType":"address"}],"outputs":[{"name":"","type":"bool","internalType":"bool"}],"stateMutability":"view"},{"type":"function","name":"nextPostId","inputs":[{"name":"","type":"uint256","internalType":"uint256"}],"outputs":[{"name":"","type":"uint256","internalType":"uint256"}],"stateMutability":"view"},{"type":"function","name":"owner","inputs":[],"outputs":[{"name":"","type":"address","internalType":"address"}],"stateMutability":"view"},{"type":"function","name":"pendingOwner","inputs":[],"outputs":[{"name":"","type":"address","internalType":"address"}],"stateMutability":"view"},{"type":"function","name":"post","inputs":[{"name":"title","type":"string","internalType":"string"},{"name":"attackers_","type":"address[]","internalType":"address[]"},{"name":"victims_","type":"address[]","internalType":"address[]"},{"name":"note","type":"string","internalType":"string"},{"name":"attackedAt","type":"uint64","internalType":"uint64"}],"outputs":[{"name":"id","type":"uint256","internalType":"uint256"}],"stateMutability":"nonpayable"},{"type":"function","name":"postCount","inputs":[],"outputs":[{"name":"","type":"uint256","internalType":"uint256"}],"stateMutability":"view"},{"type":"function","name":"postTitle","inputs":[{"name":"","type":"uint256","internalType":"uint256"}],"outputs":[{"name":"","type":"string","internalType":"string"}],"stateMutability":"view"},{"type":"function","name":"prevPostId","inputs":[{"name":"","type":"uint256","internalType":"uint256"}],"outputs":[{"name":"","type":"uint256","internalType":"uint256"}],"stateMutability":"view"},{"type":"function","name":"proxiableUUID","inputs":[],"outputs":[{"name":"","type":"bytes32","internalType":"bytes32"}],"stateMutability":"view"},{"type":"function","name":"recentActivePosts","inputs":[{"name":"limit","type":"uint256","internalType":"uint256"}],"outputs":[{"name":"ids","type":"uint256[]","internalType":"uint256[]"}],"stateMutability":"view"},{"type":"function","name":"removeWhitelisted","inputs":[{"name":"account","type":"address","internalType":"address"}],"outputs":[],"stateMutability":"nonpayable"},{"type":"function","name":"renounceOwnership","inputs":[],"outputs":[],"stateMutability":"nonpayable"},{"type":"function","name":"retract","inputs":[{"name":"postId","type":"uint256","internalType":"uint256"}],"outputs":[],"stateMutability":"nonpayable"},{"type":"function","name":"tailPostId","inputs":[],"outputs":[{"name":"","type":"uint256","internalType":"uint256"}],"stateMutability":"view"},{"type":"function","name":"transferOwnership","inputs":[{"name":"newOwner","type":"address","internalType":"address"}],"outputs":[],"stateMutability":"nonpayable"},{"type":"function","name":"unconfirm","inputs":[{"name":"postId","type":"uint256","internalType":"uint256"}],"outputs":[],"stateMutability":"nonpayable"},{"type":"function","name":"upgradeToAndCall","inputs":[{"name":"newImplementation","type":"address","internalType":"address"},{"name":"data","type":"bytes","internalType":"bytes"}],"outputs":[],"stateMutability":"payable"},{"type":"event","name":"AttackersAdded","inputs":[{"name":"postId","type":"uint256","indexed":true,"internalType":"uint256"},{"name":"amender","type":"address","indexed":true,"internalType":"address"},{"name":"newAttackers","type":"address[]","indexed":false,"internalType":"address[]"}],"anonymous":false},{"type":"event","name":"Confirmed","inputs":[{"name":"postId","type":"uint256","indexed":true,"internalType":"uint256"},{"name":"confirmer","type":"address","indexed":true,"internalType":"address"},{"name":"oldDirection","type":"uint8","indexed":false,"internalType":"enum ThatsRekt.ConfirmDirection"},{"name":"newDirection","type":"uint8","indexed":false,"internalType":"enum ThatsRekt.ConfirmDirection"}],"anonymous":false},{"type":"event","name":"Initialized","inputs":[{"name":"version","type":"uint64","indexed":false,"internalType":"uint64"}],"anonymous":false},{"type":"event","name":"OwnershipTransferStarted","inputs":[{"name":"previousOwner","type":"address","indexed":true,"internalType":"address"},{"name":"newOwner","type":"address","indexed":true,"internalType":"address"}],"anonymous":false},{"type":"event","name":"OwnershipTransferred","inputs":[{"name":"previousOwner","type":"address","indexed":true,"internalType":"address"},{"name":"newOwner","type":"address","indexed":true,"internalType":"address"}],"anonymous":false},{"type":"event","name":"PostCreated","inputs":[{"name":"id","type":"uint256","indexed":true,"internalType":"uint256"},{"name":"poster","type":"address","indexed":true,"internalType":"address"},{"name":"attackedAt","type":"uint64","indexed":false,"internalType":"uint64"},{"name":"title","type":"string","indexed":false,"internalType":"string"},{"name":"attackers","type":"address[]","indexed":false,"internalType":"address[]"},{"name":"victims","type":"address[]","indexed":false,"internalType":"address[]"},{"name":"note","type":"string","indexed":false,"internalType":"string"}],"anonymous":false},{"type":"event","name":"PostNoteAmended","inputs":[{"name":"postId","type":"uint256","indexed":true,"internalType":"uint256"},{"name":"amender","type":"address","indexed":true,"internalType":"address"},{"name":"newNote","type":"string","indexed":false,"internalType":"string"}],"anonymous":false},{"type":"event","name":"PostRemoved","inputs":[{"name":"postId","type":"uint256","indexed":true,"internalType":"uint256"},{"name":"reason","type":"uint8","indexed":false,"internalType":"enum ThatsRekt.RemovalReason"}],"anonymous":false},{"type":"event","name":"PostTitleAmended","inputs":[{"name":"postId","type":"uint256","indexed":true,"internalType":"uint256"},{"name":"amender","type":"address","indexed":true,"internalType":"address"},{"name":"newTitle","type":"string","indexed":false,"internalType":"string"}],"anonymous":false},{"type":"event","name":"Upgraded","inputs":[{"name":"implementation","type":"address","indexed":true,"internalType":"address"}],"anonymous":false},{"type":"event","name":"VictimsAdded","inputs":[{"name":"postId","type":"uint256","indexed":true,"internalType":"uint256"},{"name":"amender","type":"address","indexed":true,"internalType":"address"},{"name":"newVictims","type":"address[]","indexed":false,"internalType":"address[]"}],"anonymous":false},{"type":"event","name":"WhitelistUpdated","inputs":[{"name":"account","type":"address","indexed":true,"internalType":"address"},{"name":"status","type":"bool","indexed":false,"internalType":"bool"}],"anonymous":false},{"type":"error","name":"AddressEmptyCode","inputs":[{"name":"target","type":"address","internalType":"address"}]},{"type":"error","name":"DuplicateAddress","inputs":[]},{"type":"error","name":"ERC1967InvalidImplementation","inputs":[{"name":"implementation","type":"address","internalType":"address"}]},{"type":"error","name":"ERC1967NonPayable","inputs":[]},{"type":"error","name":"EmptyAdditions","inputs":[]},{"type":"error","name":"EmptyPost","inputs":[]},{"type":"error","name":"FailedCall","inputs":[]},{"type":"error","name":"InvalidAttackedAt","inputs":[]},{"type":"error","name":"InvalidConfirmDirection","inputs":[]},{"type":"error","name":"InvalidInitialization","inputs":[]},{"type":"error","name":"NoConfirmationChange","inputs":[]},{"type":"error","name":"NotInitializing","inputs":[]},{"type":"error","name":"NotPoster","inputs":[]},{"type":"error","name":"NotWhitelisted","inputs":[]},{"type":"error","name":"NothingToUnconfirm","inputs":[]},{"type":"error","name":"OwnableInvalidOwner","inputs":[{"name":"owner","type":"address","internalType":"address"}]},{"type":"error","name":"OwnableUnauthorizedAccount","inputs":[{"name":"account","type":"address","internalType":"address"}]},{"type":"error","name":"PostIsRemoved","inputs":[]},{"type":"error","name":"PostNotFound","inputs":[]},{"type":"error","name":"PostTooLarge","inputs":[]},{"type":"error","name":"PosterCannotConfirm","inputs":[]},{"type":"error","name":"TitleEmpty","inputs":[]},{"type":"error","name":"TitleTooLong","inputs":[]},{"type":"error","name":"UUPSUnauthorizedCallContext","inputs":[]},{"type":"error","name":"UUPSUnsupportedProxiableUUID","inputs":[{"name":"slot","type":"bytes32","internalType":"bytes32"}]},{"type":"error","name":"ZeroAddress","inputs":[]}],"bytecode":{"object":"0x60a0806040523460c857306080527ff0c57e16840df040f15088dc2f81fe391c3923bec73e23a9662efc9c229c6a009081549060ff8260401c1660b957506001600160401b036002600160401b0319828216016075575b60405161294090816100cd8239608051818181611487015261156f0152f35b6001600160401b031990911681179091556040519081527fc7f505b2f371ae2175ee4913f4499e1f2633a7b5936321eed1cdaeb6115181d290602090a15f80806056565b63f92ee8a960e01b8152600490fd5b5f80fdfe608080604052600480361015610013575f80fd5b60e0905f35821c92836307363ce81461207c5750826310154bad1461200157826313a34b2814611d1a57826317906c2e14611cfd57826317a1e54d14611c0457826317ada0b014611ab257826322d4164d14611834578263291d954914611a3d5782632d10cc3d14611a005782632ef9a160146119e557826334d46b531461183957826334fe4650146118345782633af32abf146117f857826340731c24146117285782634f1ef286146114ee57826352d1902d1461147557826359dafd3c1461144d5782635ef7c71414611376578263640c63951461133e5782636559e955146113065782636946444f14610ef75782636cd0fc2714610cbd578263715018a614610c4057826379ba509714610bed5782637e7d5daf14610b8a5782638094c91414610b6d5782638da5cb5b14610b39578263932375e914610b115782639fab66561461092c578263a8beb1da14610905578263ad3cb1cc146108a3578263b1fd994b14610851578263b779e1c0146107db578263c3765c3214610717578263c4d66de8146105b8578263ccde89ce14610504578263e30c3978146104d0578263e3c91286146104a8578263ec132ce3146102895750508063f2fde38b146102055763f93b72e1146101e4575f80fd5b34610201575f366003190112610201576020600a54604051908152f35b5f80fd5b346102015760203660031901126102015761021e6120bf565b61022661252c565b5f805160206128eb83398151915280546001600160a01b0319166001600160a01b039283169081179091555f805160206128cb833981519152549091167f38d16b8cac22d99fc7c124b9cd0de2d3fa1faef420bfe791d8c362d765e227005f80a3005b346102015760208060031936011261020157813590335f525f815260ff60405f2054161561049757815f526002815260405f209260018060a01b03808554161561048757600195600186019586549260ff84871c1661047657865f526003926003875260405f20335f52875260ff60405f2054169860038a10156104635789156104525760018a1495861561042e57505061032a61034a918454901c6122de565b83546001600160e01b031660e09190911b6001600160e01b031916178355565b600261035589612564565b5f0b9201928354935f5b8581106103fd578a8a5f8b8b8b848452600383526040842033855283526040842060ff19815416905583146103da5783835281526103a0336040842061270a565b505b6103af6040518095612285565b8301527f097ad824d639a422c3d350f244fc0f8c23b116959ede9dbc119114e0fae2022260403393a3005b50600284036103a257828252600581526103f7336040842061270a565b506103a2565b808461040a8e9385612334565b905490861b1c165f5260068a5260405f2061042687825461231c565b90550161035f565b90915063ffffffff6104418183166122de565b169063ffffffff191617905561034a565b6040516317eb898b60e11b81528790fd5b602187634e487b7160e01b5f525260245ffd5b60405163dbe5a57560e01b81528590fd5b5060405163bc1f089f60e01b8152fd5b604051630b094f2760e31b81528390fd5b3461020157602036600319011261020157355f52600d602052602060405f2054604051908152f35b34610201575f366003190112610201575f805160206128eb833981519152546040516001600160a01b039091168152602090f35b346102015760209060206003193601126102015735606481116105b0575b61052b8161238f565b91600b545f905b801515806105a7575b15610561578061054b83876123c1565b525f52600d8252600160405f2054910190610532565b848261056c8161238f565b915f5b828110610588576040518061058486826120d5565b0390f35b80610595600192846123c1565b516105a082876123c1565b520161056f565b5083821061053b565b506064610522565b34610201576020366003190112610201576105d16120bf565b907ff0c57e16840df040f15088dc2f81fe391c3923bec73e23a9662efc9c229c6a009182549160ff8360401c1615926001600160401b0381168015908161070f575b6001149081610705575b1590816106fc575b506106ec5767ffffffffffffffff1981166001178555836106cd575b5061064a6126c9565b6106526126c9565b6001600160a01b038216156106b6575061066b9061265e565b6106736126c9565b61067957005b68ff00000000000000001981541690557fc7f505b2f371ae2175ee4913f4499e1f2633a7b5936321eed1cdaeb6115181d2602060405160018152a1005b6024905f60405191631e4fbdf760e01b8352820152fd5b68ffffffffffffffffff19166801000000000000000117845584610641565b5060405163f92ee8a960e01b8152fd5b90501586610625565b303b15915061061d565b859150610613565b34610201576020908160031936011261020157355f52600e815260405f2090604051905f928054610747816122a6565b808552916001918083169081156107b9575060011461077d575b61058485610771818903826121ca565b6040519182918261225b565b5f908152838120939550925b8284106107a6575050508161058493610771928201019385610761565b8054858501870152928501928101610789565b60ff191686860152505050151560051b82010191506107718161058485610761565b3461020157602090816003193601126102015780355f52815260405f20906040518083838295549384815201905f52835f20925f5b8582821061083b57505050610827925003836121ca565b61058460405192828493845283019061218e565b8554845260019586019588955093019201610810565b34610201576040366003190112610201576024356001600160a01b038116919082900361020157355f52600360205260405f20905f52602052602060ff60405f2054166108a16040518092612285565bf35b34610201575f36600319011261020157604051604081018181106001600160401b038211176108f257610584925060405260058152640352e302e360dc1b60208201526040519182918261225b565b604183634e487b7160e01b5f525260245ffd5b346102015760203660031901126102015780355f52602052602060405f2054604051908152f35b346102015760208060031936011261020157813591825f526002825260405f209360018060a01b0391828654168015610487573303610b025760ff600180970154851c16610af35750835f526002835260405f20908154901c9161099c600183019363ffffffff8554169061231c565b6002830190815491885f5b848110610aaf5750505050506003809201918254925f5b848110610a6857877f5718ae2ef8a84a4ac1944e4db68da2c2f99b2367a583836f2032da026b358c808888835f52600d825260405f2054600c835260405f20548115155f14610a5f57815f528060405f20555b8015610a56575f52600d835260405f20555b835f52600d82525f6040812055600c82525f604081205564010000000064ff00000000198254161790556040515f8152a2005b50600b55610a23565b80600a55610a11565b8084610a758b9385612334565b905490861b1c165f526009885260405f205f1981540180915515610a9a575b016109be565b6008885260405f20805460ff19169055610a94565b85610aba8285612334565b90549060031b1c16805f5260068a5260405f20610ad886825461231c565b90555f526007895260405f205f1981540190550189906109a7565b60405163dbe5a57560e01b8152fd5b604051630edd024760e11b8152fd5b3461020157602036600319011261020157355f52600c602052602060405f2054604051908152f35b34610201575f366003190112610201575f805160206128cb833981519152546040516001600160a01b039091168152602090f35b34610201575f366003190112610201576020600b54604051908152f35b34610201576020908160031936011261020157355f526005815260405f20906040518083838295549384815201905f52835f20925f5b85828210610bd757505050610827925003836121ca565b8554845260019586019588955093019201610bc0565b34610201575f366003190112610201575f805160206128eb83398151915254336001600160a01b0390911603610c2857610c263361265e565b005b6024906040519063118cdaa760e01b82523390820152fd5b34610201575f36600319011261020157610c5861252c565b5f805160206128eb83398151915280546001600160a01b03199081169091555f805160206128cb833981519152805491821690555f906001600160a01b03167f8be0079c531659141344cd1fd0a4f28419497f9722a3daafe3b4186f6b6457e08280a3005b3461020157610ccb3661222c565b929190335f526020935f855260ff60405f20541615610ee6575f838152600286526040902080549094906001600160a01b03168015610487573303610b025760018095019460ff8654881c16610ed6578215610ec65760c88311610eb657845f52600e875260405f20906001600160401b0392838511610ea35750610d5082546122a6565b601f8111610e5d575b505f601f8511600114610dd757918480610db195937faae225037103bba935ab52a59332ced3e456790237b9b71dc31ce4357a9cdb6c999a955f93610dcc575b501b905f198760031b1c19161790555b421690612441565b610dc7604051928392878452339784019161250c565b0390a3005b89013592508c610d99565b601f19851690835f52895f20915f5b8b828210610e4957505091610db1959391877faae225037103bba935ab52a59332ced3e456790237b9b71dc31ce4357a9cdb6c9a9b969410610e30575b505085811b019055610da9565b8801355f19600389901b60f8161c191690558a80610e23565b898401358555938501939283019201610de6565b825f52885f20601f860160051c8101918a8710610e99575b601f0160051c019082905b828110610e8e575050610d59565b5f8155018290610e80565b9091508190610e75565b604190634e487b7160e01b5f525260245ffd5b506040516324a25c5760e01b8152fd5b50604051635d0ff12d60e01b8152fd5b5060405163dbe5a57560e01b8152fd5b604051630b094f2760e31b81528490fd5b346102015760a0366003190112610201576001600160401b0390803582811161020157610f2790369083016121ff565b9260243581811161020157610f3f9036908501612110565b9060443583811161020157610f579036908701612110565b909160643585811161020157610f7090369089016121ff565b94909686608435166084350361020157335f525f60205260ff60405f205416156112f55789156112e45760c88a116112d3578660843516156112c2578642168760843516116112c2576064610fc585846123d5565b116112b1576001805481018082555f81815260026020526040902080546001600160e01b0319163367ffffffffffffffff60a01b19161760843560a01b67ffffffffffffffff60a01b16178155909a909161102590428b16908401612441565b600e60205260405f2090898d11610ea3575061104181546122a6565b601f811161126f575b508b5f601f8211600114611208575f916111fd575b505f1960038e901b1c191660018d901b1790555b600281015f5b8481106111b75750506003015f5b8581106111595750506020999489979461110b611129957f0d7ae440ca52974e1d1ce2edd77d29270dc9dd3ae72340834b3424a93e4998a299956110fd611119968d600b549081155f14611134579050600a558d600b555b6040519b8c9b608435168c52602060a0908d015260a08c019161250c565b9189830360408b015261246d565b91868303606088015261246d565b908382036080850152339761250c565b0390a3604051908152f35b5f526020600d90528060405f20555f526020600c90528d60405f20558d600b556110df565b8061116f61116a600193898b6123e2565b6123f2565b6111798185612406565b828060a01b03165f5260096020528160405f20818154018091551461119f575b01611087565b600860205260405f20805460ff191683179055611199565b806111d16111cb61116a600194898b6123e2565b84612406565b818060a01b036111e561116a83898b6123e2565b165f52600760205260405f2082815401905501611079565b90508301358d61105f565b5f8381526020812092508e90601f198216905b818110611251575010611238575b505060018c811b019055611073565b8401355f1960038f901b60f8161c191690558c80611229565b9293602091925060018291868a013581550194019201908f9161121b565b815f5260205f208d6020601f820160051c830191106112aa575b601f830160051c8201811061129f57505061104a565b5f8155600101611289565b5080611289565b604051636f91f0ef60e11b81528990fd5b60405163a7e234c760e01b81528990fd5b6040516324a25c5760e01b81528990fd5b604051635d0ff12d60e01b81528990fd5b604051630b094f2760e31b81528990fd5b34610201576020366003190112610201576001600160a01b036113276120bf565b165f526006602052602060405f2054604051908152f35b34610201576020366003190112610201576001600160a01b0361135f6120bf565b165f526007602052602060405f2054604051908152f35b34610201576113843661222c565b92335f525f60205260ff60405f2054161561143e575f83815260026020526040902080546001600160a01b0316801561142d57330361141d576001019060ff825460201c16610af357507f6b4b6748b092a36f538b5d936f48f9e52910f5b77b05297c90560423a14bb25c91611407610dc7926001600160401b03421690612441565b604051918291602083523396602084019161250c565b50604051630edd024760e11b8152fd5b60405163bc1f089f60e01b81528390fd5b604051630b094f2760e31b8152fd5b3461020157602036600319011261020157355f526005602052602060405f2054604051908152f35b34610201575f366003190112610201577f00000000000000000000000000000000000000000000000000000000000000006001600160a01b031630036114df5760206040517f360894a13ba1a3210667c828492db98dca3e2076cc3735a920a3ca505d382bbc8152f35b60405163703e46dd60e11b8152fd5b6040366003190112610201576115026120bf565b9060249182356001600160401b039182821161020157366023830112156102015781840135928311611716576020926040519261154885601f19601f85011601856121ca565b8184523687838301011161020157815f928887930183870137840101526001600160a01b037f000000000000000000000000000000000000000000000000000000000000000081163081149081156116e8575b506116d7576115a861252c565b6040516352d1902d60e01b81529082169380828781885afa9182915f936116a7575b50506115e65750505060405191634c9c8ce360e01b8352820152fd5b928493867f360894a13ba1a3210667c828492db98dca3e2076cc3735a920a3ca505d382bbc918281036116915750833b1561167c575080546001600160a01b03191682179055604051907fbc7cd75a20ee27fd9adebab32041f755214dbc6bffa90cc0225b39da2e5c2d3b5f80a28251156116665750610c269250612839565b9150503461167057005b63b398979f60e01b8152fd5b604051634c9c8ce360e01b8152808701849052fd5b604051632a87526960e21b815280880191909152fd5b9080929350813d83116116d0575b6116bf81836121ca565b8101031261020157519087806115ca565b503d6116b5565b60405163703e46dd60e11b81528590fd5b9050817f360894a13ba1a3210667c828492db98dca3e2076cc3735a920a3ca505d382bbc541614158761159b565b84604185634e487b7160e01b5f52525ffd5b90346102015760203660031901126102015781355f52600260205260405f2080549160018060a01b0383169384156117e957506001600160401b036117dc6001840154936117ce6117876003611780600285016124b3565b93016124b3565b91604051988998610100918a52868160a01c1660208b0152871c60408a015263ffffffff881660608a015260ff8860201c16151560808a01528060a08a015288019061218e565b9086820360c088015261218e565b9260281c16908301520390f35b60405163bc1f089f60e01b8152fd5b34610201576020366003190112610201576001600160a01b036118196120bf565b165f525f602052602060ff60405f2054166040519015158152f35b612173565b90346102015761184836612140565b909192335f526020945f865260ff60405f2054161561143e575f858152600287526040902080546001600160a01b03929091908383168015610487573303610b0257600192600183019586549160ff838d1c166119d45788156119c357600285019260646118c58b6118c0875460038b0154906123d5565b6123d5565b116119b2579063ffffffff6118dd939216911c61231c565b905f5b888110611935578b8b7f11e33fe659ce20067cdcc1c90a3b342aa497e29cfcb732a3eaddd3a2d3c39bb48c8c61191f426001600160401b03168e612441565b610dc7604051928392878452339784019161246d565b61194361116a828b8d6123e2565b8781169081156119a1579060068e611976848f8f96888e9998611970938f8461196b9161258b565b612623565b87612406565b825f525260405f2061198986825461235d565b90555f5260078d5260405f20828154019055016118e0565b60405163d92e233d60e01b81528690fd5b604051636f91f0ef60e11b81528590fd5b604051637a1c6bcb60e11b81528490fd5b60405163dbe5a57560e01b81528490fd5b34610201575f36600319011261020157602060405160c88152f35b34610201576020366003190112610201576001600160a01b03611a216120bf565b165f526008602052602060ff60405f2054166040519015158152f35b3461020157602036600319011261020157611a566120bf565b611a5e61252c565b6001600160a01b03165f818152602081905260409020805460ff8116611a8057005b60ff191690557ff93f9a76c1bf3444d22400a00cb9fe990e6abe9dbb333fda48859cfee864543d60206040515f8152a2005b3461020157611ac036612140565b335f526020935f855260ff60405f2054161561143e575f848152600286526040902080546001600160a01b039291908316801561142d57330361141d57600191600182019360ff85548a1c16610ed6578515611bf45760028301546064611b31886118c060038801948554906123d5565b11611be3575f5b878110611b77578a8a7f6bb42a267ffcd2d73693fdcf84c1f13c887f2d4dba77e9477c0c4123eae655c88b8b61191f426001600160401b03168d612441565b611b8561116a828a8c6123e2565b8381169081156119a15790611bae82611ba881868f8f9061196b8f9a998f61258b565b85612406565b5f5260098c528160405f208181540180915514611bcc575b01611b38565b60088c5260405f20805460ff191683179055611bc6565b604051636f91f0ef60e11b81528390fd5b50604051637a1c6bcb60e11b8152fd5b346102015760403660031901126102015780359060243590825f52602090600260205260405f2060018060a01b0381541615908115611ceb575b506117e9575060648211611ce2575b611c568261238f565b925f52600d90600d60205260405f20545f905b80151580611cd9575b15611c975780611c8283886123c1565b525f52828252600160405f2054910190611c69565b8582611ca28161238f565b915f5b828110611cba576040518061058486826120d5565b80611cc7600192846123c1565b51611cd282876123c1565b5201611ca5565b50848210611c72565b60649150611c4d565b60ff91506001015460201c1685611c3e565b34610201575f366003190112610201576020600154604051908152f35b9034610201576040366003190112610201578135602435600393600382101561020157335f526020905f825260ff60405f2054161561143e578215611ff2575f8481526002835260409020805490966001600160a01b03918216908115611fe157600198600181019384549360ff85891c16611fd0573314611fbf57885f526003875260405f20335f52875260ff60405f2054169960038b101561046357888b14611fae5760018b14948515611f7d5750611dfa611dda8454831c6122de565b84546001600160e01b031660e09190911b6001600160e01b031916178455565b60018914958615611f58575061032a611e16918454901c612307565b6002611e37611e248a612564565b5f0b611e2f8d612564565b5f0b9061231c565b9201928354935f5b858110611f27578c8c611eba8d8d8d8d8d865f526003845260405f20335f52845260405f2060ff1981541660ff87161790555f14611f0557855f52818352611e8a3360405f2061270a565b505b15611ee257845f528152611ea33360405f206127e5565b505b611eb26040518096612285565b840190612285565b7f097ad824d639a422c3d350f244fc0f8c23b116959ede9dbc119114e0fae2022260403393a3005b5060028203611ea557835f5260058152611eff3360405f206127e5565b50611ea5565b60028703611e8c57855f5260058352611f213360405f2061270a565b50611e8c565b8d9084611f348285612334565b905490861b1c165f5260068b5260405f20611f5087825461235d565b905501611e3f565b8091505463ffffffff611f6c818316612307565b169063ffffffff1916179055611e16565b60028c14611f8c575b50611dfa565b63ffffffff611f9c8183166122de565b169063ffffffff19161786558c611f86565b6040516344d0554560e01b81528790fd5b60405163316c948760e01b81528690fd5b60405163dbe5a57560e01b81528790fd5b60405163bc1f089f60e01b81528490fd5b60405163c39a132360e01b8152fd5b346102015760203660031901126102015761201a6120bf565b61202261252c565b6001600160a01b03165f818152602081905260409020805460ff81161561204557005b60019060ff19161790557ff93f9a76c1bf3444d22400a00cb9fe990e6abe9dbb333fda48859cfee864543d602060405160018152a2005b34610201576020366003190112610201576040906001600160a01b036120a06120bf565b165f526006602052815f20546007602052825f20549082526020820152f35b600435906001600160a01b038216820361020157565b60209060206040818301928281528551809452019301915f5b8281106120fc575050505090565b8351855293810193928101926001016120ee565b9181601f84011215610201578235916001600160401b038311610201576020808501948460051b01011161020157565b9060406003198301126102015760043591602435906001600160401b0382116102015761216f91600401612110565b9091565b34610201575f36600319011261020157602060405160648152f35b9081518082526020808093019301915f5b8281106121ad575050505090565b83516001600160a01b03168552938101939281019260010161219f565b90601f801991011681019081106001600160401b038211176121eb57604052565b634e487b7160e01b5f52604160045260245ffd5b9181601f84011215610201578235916001600160401b038311610201576020838186019501011161020157565b9060406003198301126102015760043591602435906001600160401b0382116102015761216f916004016121ff565b602060409281835280519182918282860152018484015e5f828201840152601f01601f1916010190565b9060038210156122925752565b634e487b7160e01b5f52602160045260245ffd5b90600182811c921680156122d4575b60208310146122c057565b634e487b7160e01b5f52602260045260245ffd5b91607f16916122b5565b63ffffffff9081165f1901919082116122f357565b634e487b7160e01b5f52601160045260245ffd5b90600163ffffffff809316019182116122f357565b81810392915f1380158285131691841216176122f357565b8054821015612349575f5260205f2001905f90565b634e487b7160e01b5f52603260045260245ffd5b9190915f83820193841291129080158216911516176122f357565b6001600160401b0381116121eb5760051b60200190565b9061239982612378565b6123a660405191826121ca565b82815280926123b7601f1991612378565b0190602036910137565b80518210156123495760209160051b010190565b919082018092116122f357565b91908110156123495760051b0190565b356001600160a01b03811681036102015790565b8054600160401b8110156121eb5761242391600182018155612334565b60018060a09493941b038084549260031b9316831b921b1916179055565b906cffffffffffffffff000000000082549160281b16906cffffffffffffffff00000000001916179055565b9190808252602080920192915f5b828110612489575050505090565b9091929384359060018060a01b03821680920361020157908152820193820192919060010161247b565b90604051918281549182825260209260208301915f5260205f20935f905b8282106124e9575050506124e7925003836121ca565b565b85546001600160a01b0316845260019586019588955093810193909101906124d1565b908060209392818452848401375f828201840152601f01601f1916010190565b5f805160206128cb833981519152546001600160a01b0316330361254c57565b60405163118cdaa760e01b8152336004820152602490fd5b6003811015612292576001811461258557600214612580575f90565b5f1990565b50600190565b90600282018054905f5b8281106125f5575050506003809201918254925f5b8481106125b8575050505050565b6125c28183612334565b905490841b1c6001600160a01b03908116908516146125e3576001016125aa565b604051630148f8ab60e31b8152600490fd5b6125ff8183612334565b905460039190911b1c6001600160a01b03908116908516146125e357600101612595565b9291925f5b848110612636575050505050565b61264461116a8285856123e2565b6001600160a01b038581169116146125e357600101612628565b5f805160206128eb83398151915280546001600160a01b03199081169091555f805160206128cb83398151915280549182166001600160a01b0393841690811790915591167f8be0079c531659141344cd1fd0a4f28419497f9722a3daafe3b4186f6b6457e05f80a3565b60ff7ff0c57e16840df040f15088dc2f81fe391c3923bec73e23a9662efc9c229c6a005460401c16156126f857565b604051631afcd79f60e31b8152600490fd5b906001820191815f528260205260405f2054908115155f146127dd575f19918083018181116122f3578254908482019182116122f357818103612792575b5050508054801561277e578201916127608383612334565b909182549160031b1b19169055555f526020525f6040812055600190565b634e487b7160e01b5f52603160045260245ffd5b6127c86127a26127b29386612334565b90549060031b1c92839286612334565b819391549060031b91821b915f19901b19161790565b90555f528460205260405f20555f8080612748565b505050505f90565b6001810190825f528160205260405f2054155f14612832578054600160401b8110156121eb5761281f6127b2826001879401855584612334565b905554915f5260205260405f2055600190565b5050505f90565b905f8091602081519101845af480806128b7575b1561286d5750506040513d81523d5f602083013e60203d82010160405290565b1561289457604051639996b31560e01b81526001600160a01b039091166004820152602490fd5b3d156128a5576040513d5f823e3d90fd5b60405163d6bda27560e01b8152600490fd5b503d15158061284d5750813b151561284d56fe9016d09d72d40fdae2fd8ceac6b6234c7706214fd39c1cd1e609a0528c199300237e158222e3e6968b72b9db0d8043aacf074ad9f650f0d1606b4d82ee432c00a2646970667358221220f80dfbeea86e2c912f798754d48c102cdad160f9d944cbba28e19f4a07907fea64736f6c63430008190033","linkReferences":{}},"methodIdentifiers":{"MAX_ADDRESSES_PER_POST()":"22d4164d","MAX_TITLE_LENGTH()":"2ef9a160","MAX_VIEW_LIMIT()":"34fe4650","UPGRADE_INTERFACE_VERSION()":"ad3cb1cc","acceptOwnership()":"79ba5097","activePostsBefore(uint256,uint256)":"17a1e54d","addAttackers(uint256,address[])":"34d46b53","addVictims(uint256,address[])":"17ada0b0","addWhitelisted(address)":"10154bad","amendNote(uint256,string)":"5ef7c714","amendTitle(uint256,string)":"6cd0fc27","attackerAppearances(address)":"640c6395","attackerReport(address)":"07363ce8","attackerScore(address)":"6559e955","confirm(uint256,uint8)":"13a34b28","confirmationOf(uint256,address)":"b1fd994b","getConfirmerCount(uint256)":"a8beb1da","getConfirmers(uint256)":"b779e1c0","getDisconfirmerCount(uint256)":"59dafd3c","getDisconfirmers(uint256)":"7e7d5daf","getPost(uint256)":"40731c24","headPostId()":"f93b72e1","initialize(address)":"c4d66de8","isVictim(address)":"2d10cc3d","isWhitelisted(address)":"3af32abf","nextPostId(uint256)":"932375e9","owner()":"8da5cb5b","pendingOwner()":"e30c3978","post(string,address[],address[],string,uint64)":"6946444f","postCount()":"17906c2e","postTitle(uint256)":"c3765c32","prevPostId(uint256)":"e3c91286","proxiableUUID()":"52d1902d","recentActivePosts(uint256)":"ccde89ce","removeWhitelisted(address)":"291d9549","renounceOwnership()":"715018a6","retract(uint256)":"9fab6656","tailPostId()":"8094c914","transferOwnership(address)":"f2fde38b","unconfirm(uint256)":"ec132ce3","upgradeToAndCall(address,bytes)":"4f1ef286"},"id":57}